:020000040800F2
:10000000780E002089010008450500084D0200080F
:10001000410500084502000809060008000000002C
:100020000000000000000000000000005105000872
:1000300049020008000000004905000855050008B5
:10004000A3010008A3010008A3010008A301000800
:10005000A30100084D050008A3010008A301000842
:10006000A3010008A3010008A3010008A3010008E0
:10007000A3010008A3010008A3010008A3010008D0
:10008000A3010008A3010008A3010008A3010008C0
:10009000A3010008A3010008A3010008A3010008B0
:1000A000A3010008A3010008A3010008A3010008A0
:1000B000A30100085D0500088D050008A3010008E4
:1000C000A3010008A3010008A3010008A301000880
:1000D000A3010008A3010008B1050008DD05000820
:1000E000A3010008A3010008A301000800F002F822
:1000F00000F03AF80AA090E8000C82448344AAF188
:100100000107DA4501D100F02FF8AFF2090EBAE885
:100110000F0013F0010F18BFFB1A43F0010318473B
:10012000B00B0000D00B0000103A24BF78C878C193
:10013000FAD8520724BF30C830C144BF04680C60ED
:10014000704700000023002400250026103A28BF35
:1001500078C1FBD8520728BF30C148BF0B60704739
:100160001FB51FBD10B510BD00F031F81146FFF7E7
:10017000F7FF00F04BFA00F04FF803B4FFF7F2FF7F
:1001800003BC00F057F800000948804709480047C1
:10019000FEE7FEE7FEE7FEE7FEE7FEE7FEE7FEE737
:1001A000FEE7FEE704480549054A064B7047000094
:1001B00059050008ED00000878080020780E00209E
:1001C000780A0020780A002070477047704775460B
:1001D00000F02CF8AE4605006946534620F00700B3
:1001E000854618B020B5FFF7DDFFBDE820404FF091
:1001F00000064FF000074FF000084FF0000BAC4630
:10020000ACE8C009ACE8C009ACE8C009ACE8C0097A
:1002100021F007018D46704710B50446AFF300800A
:100220002046BDE81040FFF7A8BF00000048704717
:100230000800002001491820ABBEFEE7260002009E
:1002400070470000FEE7000070470000FEE7000076
:100250002DE9F04FB1F8018098FAA8F3B3FA83F3CF
:1002600038FA03F750D040F2011C4FF0011E4FF056
:100270000F0A4FF0040903E0013338FA03F243D0C8
:1002800028FA03F5ED07F7D0B3F108050EFA05F5E6
:1002900045F080664D6838BF0CFA03F6082D0DD185
:1002A000370AD1F810B0C46897FAA7F7B7FA87F7FA
:1002B00024EA16240BFA07F73C43C460370E96FA7B
:1002C000A6F6B6FA86F63C58B6000AFA06F224EA12
:1002D000020205FA06F442EA04053D504A6842F07B
:1002E0000802092AC8D18A680324B44025EA040414
:1002F000B2402243C251CC6809FA06F5AA43B44081
:100300002243C251B8E700BF0020BDE8F08F0000D3
:1003100044F6D351C1F26201A0FB01014FF0FF305E
:1003200000EB91104EF21001CEF200014860002067
:10033000886005200860704741F2040CC4F2020C8A
:10034000DCF8002002F00C02082A41F20022C0F280
:100350007A0216D1DCF80030DB0305D440F6001237
:10036000C0F23D0207E000BFDCF80030C3F34043B9
:100370000133B2FBF3F2DCF80030C3F38343023302
:100380005A430260DCF8003040F6B841C3F303136F
:10039000C0F60001C95C40F6C84322FA01F1416091
:1003A000DCF80020C0F60003C2F302229A5C21FAB6
:1003B00002F28260DCF80020C2F3C2229A5CD140D3
:1003C000C160704740F20001C2F20001086070474E
:1003D00080B540F2FF7E0368C4F2000E42F6004C86
:1003E0007045C4F2010C15DCB0F1804F1AD040F218
:1003F0000042C4F20002904214D0704518DCB0F103
:10040000804F1DD040F20042C4F20002904217D04B
:100410001AE000BF604505D040F60002C4F20002B9
:100420009042EAD14A6823F0700313437045E6DD39
:10043000604505D040F60002C4F20002904203D1AC
:10044000CA6823F44073134303608A686045C2623C
:100450000A88826202D000F1140104E008690CF1FC
:100460001401CCF83000086840F0010200200A6056
:1004700080BD000070B584B00446C06880045BD4C1
:100480000D46E06841F20C6105F1040C88439CE8DC
:100490004E10084318433043E06020696E4620F454
:1004A000405010432061606920F4407040EA0C0025
:1004B00060613046FFF740FF44F20040C4F20000A4
:1004C000844211D044F60000C4F2000084420BD0F4
:1004D00043F60000C4F2010084422DD106F10C0065
:1004E000006828B928E000BF06F10800006818B3CA
:1004F000296809B3192250438900B0FBF1F048F292
:100500001F51C5F2EB11A0FB01235A096FF06303E1
:1005100002FB0300322303EB0010A0FB0101F020DB
:1005200000EA511000EB0210C1F3431180B20844FD
:10053000A060002004B070BD012004B070BD0000B8
:10054000FEE70000FEE70000704700007047000073
:1005500070470000704700007047000040F21040F4
:10056000C4F200000168C90708BF70476FF00101BD
:10057000016040F60C40C4F20100016801F0010284
:1005800061F3104282F001014160704740F61000B3
:10059000C4F200000168C90708BF70476FF001018D
:1005A000016040F26800C2F2000001210170704752
:1005B00044F20040C4F200000168890658BF704749
:1005C00040F27001C2F2000140680A68531C0B60DF
:1005D00040F27441C2F200018854704744F60000B2
:1005E000C4F200000168890658BF704740F26C01F0
:1005F000C2F2000140680A68531C0B6040F27401AB
:10060000C2F2000188547047FEE700008EB041F24C
:100610001808C4F20208D8F800004EF60C5540F055
:100620000100C8F80000D8F80000CEF2000500F084
:10063000010007900798D8F804004FF6FF0140F03A
:100640008050C8F80400D8F804004FF0FF3300F0E1
:1006500080500790079828680022084040F2003137
:10066000C0F2FA510843286028684EF20547C0F3EB
:10067000022080F00701042928BF0421033803FA6F
:1006800001F138BF1046C94301FA00F00001E875D6
:100690004EF200162868CEF20007CEF200062020A7
:1006A00004213A703060C4F20101086820F0E06073
:1006B00008600A6842F2000042F00072C4F20200D0
:1006C0000A60016821F0070101600168490709D04B
:1006D000016849071CBF01685FEA417102D00168E7
:1006E0004907F2D158F8180C102161F3C70048F8F7
:1006F000180C58F8180C40F0010048F8180C58F87D
:10070000180C80070CD458F8180C80075CBF58F8F8
:10071000180C5FEA807003D458F8180C8007EED5E7
:1007200058F8140C20F0F00048F8140C58F8140C89
:1007300020F4E06048F8140C58F8140C20F46050D1
:1007400048F8140C58F8140C20F0030048F8140C66
:1007500058F8140C10F00C0F0ED058F8140C10F0C0
:100760000C0F09D058F8140C10F00C0F04D058F8E6
:10077000140C10F00C0FEBD141F20025C0F27A05F9
:1007800040F6080744F60C0944F200442846C4F237
:100790000107C4F20009C4F20004FFF7B9FD2846BE
:1007A000FFF710FE58F8140C052161F31A600025BC
:1007B00048F8140C0B95CDE90955D8F80000032131
:1007C00040F02000C8F80000D8F80000A7F10806A3
:1007D00000F0200002900298D8F800000DF11C0AE9
:1007E00040F00400C8F80000D8F800004FF0030BF8
:1007F00000F0040002900298D8F8000040F00800D1
:10080000C8F80000D8F8000000F008000290029834
:1008100040F61440C4F2010001604CF2C0000790A1
:100820000420089030465146FFF712FD40F2033095
:100830000790012008900220CDE9090507F57E7098
:1008400051460190FFF704FD0120C0F201400790DE
:100850000920CDE9080B304651460A95FFF7F8FC10
:100860000B95CDE90955CDE90755D8F804004EF2AE
:10087000001140F00400C8F80400D8F80400CEF2DB
:10088000000100F00400029002984EF60C50CEF2E7
:10089000000000684EF20540CEF2000045764FF0B1
:1008A0008040086040F2E73040F2004BADF81C0099
:1008B00041F63F70C4F2000BCDE909050BF58060ED
:1008C00007A90895FFF784FDDBF8000440F608014E
:1008D00020F08000CBF80004C4F2000108684BF659
:1008E000F872CFF6FF721040086051F8040C0DF159
:1008F000080A20F0700041F8040C086820F080001D
:1009000008600695D8F80400514640F40030C8F855
:100910000400D8F8040000F4003007900798D8F8D5
:10092000000040F00400C8F80000D8F8000000F013
:1009300004000790079840F20440029009200390B9
:100940000320CDE904053046FFF782FC40F608009D
:1009500002900420039030465146FFF779FC4EF692
:100960000C50CEF2000000684EF20540CEF20000BE
:100970004EF2001180F821504020CEF20001486074
:100980004FF49650CDE907050C20CDE90B0507A9DA
:100990002046CDE909550D95FFF76CFD20690DF155
:1009A000080A20F4904020616069514620F02A0036
:1009B0006061E06840F40050E0600695D8F80400FB
:1009C00040F48020C8F80400D8F8040000F4802027
:1009D00007900798D8F8000040F00800C8F8000019
:1009E000D8F8000000F00800079007980120C0F236
:1009F000014000F1031002900920019E03900320A2
:100A0000CDE904053046FFF723FC0120C0F2014088
:100A100000F1071002900420039030465146FFF782
:100A200017FC4EF60C5ACEF2000ADAF800004EF22D
:100A300005464EF20011CEF200068020CEF20001F3
:100A400086F8225048604FF49650CDE907050C20F7
:100A5000CDE90B0504F5806007A9CDE909550D9591
:100A6000FFF708FDD9F804004EF2001120F4904081
:100A7000C9F80400D9F80800CEF2000120F02A00DD
:100A8000C9F80800D9F8000040F40050C9F8000087
:100A90000B95CDE90955CDE90755D8F8040040F08C
:100AA0000200C8F80400D8F8040000F00200029028
:100AB0000298DAF800004FF0005035760860CF2039
:100AC000ADF81C000120CDE9090507A95846089595
:100AD000FFF77EFCDBF800004BF6F87120F0800099
:100AE000CBF80000DBF80800CFF6FF710840CBF828
:100AF0000800DBF8040040F6080120F07000CBF895
:100B00000400DBF80800C4F2000120F08000CBF8FC
:100B10000800DBF8000440F2744220F00200CBF839
:100B200000044868C2F2000240F001004860DBF8AF
:100B3000000440F2740140F00100CBF80004DBF83F
:100B40000000C2F2000120F00200CBF80000DBF848
:100B50000C0040F00100CBF80C00DBF8000040F086
:100B60000100CBF80000D9F8000040F02000C9F8DF
:100B70000000E06840F02000E06040F26800C2F24F
:100B8000000001E0157005700378002BFCD00E7892
:100B9000AEB3002304E000BF01339EB28E5DA6B168
:100BA000666026687606F7D4266876065CBF2668F7
:100BB0005FEA4666F0D426687606F2D5ECE700BF19
:100BC0004368CD544368013B43604368B3B1436815
:100BD000CD544368013B436043687BB14368CD54C7
:100BE0004368013B4360436843B14368CD54436865
:100BF000013B43604368002BE2D100BF0D701378C6
:100C0000002BC0D03E6876060AD53E68760644BF03
:100C10003E685FEA466603D53E687606F2D400BFBA
:100C20003E6876060AD43E6876065CBF3E685FEA98
:100C3000466603D43E687606F2D500BF002603E080
:100C40000136B3B2D35CC3B149F8083CD4F80034E0
:100C50005B06F5D4D4F800345B065CBFD4F80034EE
:100C60005FEA4363ECD4D4F800345B06EED5E7E7E3
:100C70008368D5548368013B83608368002B3FF40D
:100C800081AF8368D5548368013B83608368002B00
:100C90003FF478AF8368D5548368013B83608368F1
:100CA000002B3FF46FAF8368D5548368013B8360AA
:100CB0008368002BDCD165E7000000000000000025
:100CC00001020304060708090000000001020304F2
:100CD000F00C0008000000200800000028010008B7
:100CE000F80C000808000020700E00004401000805
:080CF0000024F40000000000E4
:04000005080000ED02
:00000001FF
